:400000000010002011000000510400005104000080B500AF00F026FA80B500AF1B4B1B4A12688021C9020A431A60182001F088FC164B164A126816490A401A60154B164ABA
:400040001A60164B30221A60154B20221A60154B10221A60144B11221A60144B802212061A600A4B00221A60114B124A1A60124B124A1A60124B134A1A60134BEF221A609F
:40008000124B00221A60C046BD4680BD00010B40FFFFFBFF04010B40060000800C02024014020240180202402002024008010B4000000240FE00008040000240FE0000C02B
:4000C0008000024002000080040002400C020B4080B582B000AF72B6FB1D00221A7022E0FB1D1A7813005B009B185B00424A9B183B603B681A78597809020A43997809049D
:400100000A43DB781B06134318003B681A795B791B0213439BB2190000F008F9FB1D1A78FB1D01321A70FB1D1B78012BD8D9334A334B1100180000F009F9324BC0229200AE
:400140001A60314BC02292041A60304B304A1A60304B992212041A602F4B8A22D2031A602E4B992212041A602D4B802292051A602C4B992212041A602B4B802292051A6013
:400180002A4B2B4A1A602B4A2A4B1B78DBB23C218B43DBB214210B43DBB21370264A264B1B78DBB216210B43DBB21370234B04221A60234BC02252001A60224B7E221A603F
:4001C000214BC02252031A60204B3E221A60204B03221A601F4B204A1A60204B04221A601F4B04221A60FFF717FF00F0F1F8C046BD4602B080BDC046D0300000F830000025
:40020000DC30000000000140040001400C000140EEEE000000500F4008500F4010500F4018500F4030500F4038500F40200105401000010001700F4000700F400000044077
:40024000080004400001044008010440180104400003044008030440A40D0000000404401804044010B5064C2378002B07D1054B002B02D0044800E000BF0123237010BDE3
:400280007801002000000000CC300000084B10B5002B03D00749084800E000BF07480368002B00D110BD064B002BFBD09847F9E7000000007C010020CC300000C80000204A
:4002C0000000000080B500AF62B600F0C1FF00F06FFF00F00FFD00F02BFD00F001F8FAE780B500AF002000F0B9FC03001A000C4B1A800B4B1B880B4A93420ED0084B1A8869
:40030000094B1B889A4208D0054B1B88180000F081FF034B1A88044B1A80C046BD4680BDCC000020FFFF0000CE00002080B582B000AF786039603A687B680021180002F069
:40034000BDFEC046BD4602B080BDC04680B586B000AF7860396000233B6100237B612FE07B699B007A68D3181B68BB600F23FB18BA681A70BB68FF229343BB6018E03B69C0
:400380005B003A68D3181B781A00BB68D31819003B695B003A68D3185B780B703B6901333B610F23FB181A780F23FB18013A1A700F23FB181B78002BE1D17B6901337B61A9
:4003C0007B69062BCCD9C046BD4606B080BDC04680B500AF012000F003F8C046BD4680BD80B584B000AF0200FB1D1A70154B1B68FB60FB1D1B78002B05D0FB688022120649
:400400001343FB6003E0FB685B005B08FB600D4BFA681A600C4B1B68FB60FB1D1B78002B05D0FB68802292041343FB6003E0FB68064A1340FB60044BFA681A60C046BD46D4
:4004400004B080BD80031A4008010B40FFFFFFFD80B500AF02F006FE03001B680C2B00D1FEE7FEE780B586B000AF224B7B61224B3B61204B7B6135E03B691B68FB603B6940
:400480005B68BB603B699B683B6000237B600CE0FB681A68BB681A60BB680433BB60FB680433FB607B6804337B607A683B689A42EED13B69DB683B6000237B6008E0BB68A6
:4004C00000221A60BB680433BB607B6804337B607A683B689A42F2D13B6910333B617B69013B7B617B69002BC6D102F0C1FDFFF7E9FEFEE7010000007032000080B582B031
:4005000000AF00237B600FE07B68032B04D8104B7A689200D35800E00E4B0F4A796889008B507B6801337B607B682F2BECD9FFF7CFFD0A4B00221A608023DB058022D205BE
:40054000126801210A431A60C046BD4602B080BD000000005104000000000020C000002080B582B000AF78600A4B7A685200D15A094B7A685200D152084A7B68D31800223C
:400580001A70074A7B68D31800221A70C046BD4602B080BDCC01002094010020A0010020A801002080B582B000AF01F09BFCC04601F0C4FC031EFBD100237B6011E07A68AF
:4005C0000B4B1100180001F045FF03003B603B68002B03D07B681800FFF7C2FF7B6801337B607B68042BEAD9C046BD4602B080BDF800002080B586B000AF78601123FB1846
:4006000070497A688A1812781A701123FB181A781023FB186C498A5C1A700E23FB186B4A796849008A5A1A807B68D9B2674A684B180002F007FB674B7A685200D35A0E2263
:40064000BA1812889A4212D3634A7B68D31800221A70604B7A685200D25A1223FB180E21791809888A1A1A8001237B610CE0594B7A685200D15A1223FB180E22BA18128871
:400680008A1A1A8000237B617B69002B2AD11123FB181B78514AD35C9BB21222BA1812889A421FD94C4A7B68D3181A784C497B68CB181B789A4209D37B681800FFF750FFB2
:4006C000454A7B68D31800221A7051E0424A7B68D3181B780133D9B23F4A7B68D3180A1C1A7045E01023FB181B789BB21222BA1812889A420DD91123FB181B78374AD35CD6
:400700009BB21222BA1812889A4231D27B69002B2ED1304B7A685200D35A1B02BB60314A7B68D3181B781A00BB681343BB600E23FB181B88BA68D318BB60264B7A6852008D
:40074000D35A1A00BB689B1ABB60BB681B0A99B2204B7A685200D152BB68D9B2214A7B68D3180A1C1A701C4A7B68D31800221A701023FB181B789BB21222BA1812889A42D1
:4007800017D97B69002B14D01223FB181B88FF2B05D9154A7B68D318FF221A700EE01223FB181B88D9B2104A7B68D3180A1C1A7004E00D4A7B68D31800221A70C046BD4691
:4007C00006B080BD04320000D8010020CC0100206802002094010020DC010020E4010020D0000020A0010020A801002080B582B000AF78607B68180000F0AAFB7B681800B6
:40080000FFF7F8FEC046BD4602B080BD80B582B000AF00237B6011E07A680C4B1100180001F018FE03003B603B68002B03D07B681800FFF7DBFF7B6801337B607B68042B58
:40084000EAD9C046BD4602B080BDC046F800002080B584B000AF78600F23FB1843497A688A1812781A700F23FB181A780E23FB183F498A5C1A700F23FB181A780D23FB1819
:400880003C498A5C1A700F23FB181A780C23FB1839498A5C1A700B23FB1800221A700B23FB181B78354A0121D1547A68344B1100180001F0CFFD031E1CD0324A7B68D31813
:4008C0001B7819000E23FB181A780D23FB181B78D31A99423BDA7968294B0022180001F0DBFD0B23FB181B78244A0C2179180978D1542CE0234A7B68D3181B7819000E23A1
:40090000FB181A780D23FB181B78D318994216DB0B23FB181B78194AD25C013AD1B2174AD1540B23FB181B78144AD35C002B0ED17968134B0122180001F0AEFD07E00B2346
:40094000FB181B780D4A0C2179180978D1547A680B4B1100180001F07DFD031E01D0012300E000231800BD4604B080BD04320000EC010020E8010020D8000020B40100200C
:40098000B0010020A801002080B586B000AF786000237B6105231A007B69D318FB6000233B617B691800FFF753FF031E01D001233B617B6901337B617A69FB689A42F0D3B2
:4009C0003B691800BD4606B080BDC04680B582B000AF00233B6000237B600AE07B681800FFF7D2FF031E01D001233B607B6801337B607B68002BF1D03B681800BD4602B0DF
:400A000080BDC04690B585B000AF040008001100FB1D221C1A70BB1D021C1A707B1D0A1C1A700E23FB18FF221A700D23FB1800221A70FB1D1A78204BD318BB600F23FB1847
:400A400000221A702AE00F23FB181B78BA68D3181B787A1D12789A4219D20F23FB181B78BA68D3181B780D22BA1812789A420ED20E23FB180F22BA1812781A700F23FB1801
:400A80001B78BA68D2180D23FB1812781A700F23FB181A780F23FB1801321A700F23FA18BB1D12781B789A42CDD30E23FB181B781800BD4605B090BDA8010020B0B588B058
:400AC00000AF05000C0010001900FB1D2A1C1A70BB1D221C1A707B1D021C1A70BB1C0A1C1A80BB1D1A785B4BD318BB611F23FB1800221A70FB1D1B78002B05D01F23FB1896
:400B0000FA1D1278013A1A701723FB18FA1D127801321A70FB1D1B78BA69D3181A784E4B5A70FB1D1B78002B0BD14B4B00221A701723FB181B78BA69D3181A78464B9A70E7
:400B400022E0FB1D1A787B1D1B78013B9A420BD11F23FB181B78BA69D3181A783E4B1A703D4B00229A700FE01F23FB181B78BA69D3181A78384B1A701723FB181B78BA69D4
:400B8000D3181A78344B9A70334B1B783022BA1812789A4209D2304B1A783023FB181B78D31ADAB22C4B1A7002E02B4B00221A70294B5A783023FB181B78D31ADAB2264B0C
:400BC0005A70254B9B783022BA1812789A4209D2214B9A783023FB181B78D31ADAB21E4B9A7002E01C4B00229A701B4B9B781A00194B1B78D31A3B61174B1B781A00164BE8
:400C00005B78D318144A92789B18FB603B691B02F968180002F03AF903001A00FB1D1B781B02D318FB60BB1C00229B5E1A00FB685343FB60FB68FE22D201944663441A0C99
:400C40000B23FB181A700B23FB181B781800BD4608B0B0BDA8010020B8010020B0B586B002AF78600D23FB1800221A700C23FB1805221A701D4A7B68D3181A780B23FC18E4
:400C80000C23FB1819780D23FB181B781800FFF7B9FE030023700B23FB181B78FF2B19D0C8235D01124A7B68D3181B780C22BA1814780D22BA1811780B22BA181078009313
:400CC0002B002200FFF7FAFE03001A000E23FB181A8004E00E23FB18012252421A800E23FB181B881800BD4604B0B0BDEC010020D801002080B500AF0B4B180001F08CFC51
:400D00000A4B01221A7001F08BF8FFF74BFC00F0C7FA064B1A003A213A2000F09FFB01F0E1F8C046BD4680BDF1010020F001002080B500AF01F002F9031E1DD1FFF766FD3A
:400D40000F4B180000F022F80E4B180001F08CFC0B2000F061FFC0460B4B5B78DBB2042BFAD100F05FFB020020231340F4D10B2000F068FF01F0B6F8C046BD4680BDC046C8
:400D8000F4010020F1010020F001002090B585B000AF78600F23FB1800221A7028E00F23FB181C780F23FB181B781800FFF756FF03001A0079686300CB180133FF21114004
:400DC0000C00197800200140081C211C01431970120A90B25A7800210A40111C021C0A435A700F23FB181A780F23FB1801321A700F23FB181B78002BD1D0FFF7E7FD0F2341
:400E0000FB1800221A7010E00F23FB181B780F22BA1812780949895C7A68D1540F23FB181A780F23FB1801321A700F23FB181B78002BE9D0C046BD4605B090BDB0010020EF
:400E400080B582B000AF384B05221A70364B01225A70354B05229A70334B1822DA80324B324A9A80304B324A9A6000F0EBF800233B6007E02F4B3A6892002F49D1503B6891
:400E800001333B60284B5B781A003B689A42F1D800237B600CE0294A7B68D31804221A70274A7B68D31802221A707B6801337B607B68042BEFD900F0D3F8224A1A4B11008A
:400EC000180001F01FFE204B1900012001F054FB154B180001F027FE1C4B01221A70194A114B1100180001F00DFE174B1900012001F042FB0C4B180001F036FE0A4B180096
:400F000000F0C8F800237B6006E07B68180000F01FF87B6801337B607B68042BF5D9C046BD4602B080BDC046680200206602000054310000100100200000FF0F9C020020D7
:400F4000BC0200209A0D0000A4020020C901002090B587B002AF7860344A7B68D3181B78FB607B68D9B2FB68DAB2314C3148324B0093230001F0E4FE0B23FB182C49FA688C
:400F80008A1812781A702C4AFB68D31819782B4AFB68D3180A1C1A700B23FB181B78DB2B0AD80B23FB181B78DB08D9B2244AFB68D3180A1C1A7034E00B23FB181B78EC2B4A
:400FC0000AD80B23FB181B781B09D9B21C4AFB68D3180A1C1A7024E00B23FB181B78F42B0AD80B23FB181B785B09D9B2144AFB68D3180A1C1A7014E00B23FB181B78F92B44
:401000000AD80B23FB181B789B09D9B20C4AFB68D3180A1C1A7004E0094AFB68D31800221A70C046BD4605B090BDC04604320000EC01002068020020D8010020E40100206A
:40104000E801002080B500AF044B044A126840218A431A60C046BD4680BDC0460400084080B582B000AF094B1B687B607B68084A13407B607B688022920013437B60034B6B
:401080007A681A60C046BD4602B080BD08000840FFFCFFFC80B584B000AF78600023FB6019E01C4AFB68D3181B785B08D9B21A4AFB68D3180A1C1A70164AFB68D3181B7857
:4010C00001335B08D9B2134AFB68D3180A1C1A70FB680133FB607B681B781A00FB689A42DFD80F2000F0AEFD0C4B1B68BB60BB680B4A1340BB60BB680A4A1343BB60074B1C
:40110000BA681A600F2000F087FDC046BD4604B080BDC046A4020020AC02002008000840FFFCFFFC0002000180B500AF104B8022D2041A600E4B0E4A12681A60002000F0AD
:4011400049F80B4B0A4A12681A600A4BC32292001A60002000F06EF8074B31221A60642000F048F8002000F055F8C046BD4680BD00010540240105402801054090B583B0C8
:4011800000AFFC1D00F09EFD03002370074B074A126801210A431A60FB1D1B78180000F095FDC046BD4603B090BDC0460000054080B500AF064B1B78002B04D1FFF7B4FF36
:4011C000034B01221A70FFF7D9FFC046BD4680BDBB01002080B582B000AF7860044B7A681204120C1A60C046BD4602B080BDC0460801054080B582B000AF7860044B7A68CC
:401200001204120C1A60C046BD4602B080BDC0461401054080B582B000AF7860044B7A681204120C1A60C046BD4602B080BDC0460C01054080B582B000AF7860034B7A686D
:401240001A60C046BD4602B080BDC0463801054080B500AF044B044A1268802109060A431A60C046BD4680BD0400024080B500AF00F060F8C046BD4680BDC04680B500AF1E
:40128000064B064A1268802109060A431A6000F019F800F01FF8C046BD4680BD0000074080B500AF064B1B78002B04D1FFF7DEFF034B01221A70FFF7E1FFC046BD4680BD55
:4012C000BC01002080B500AF0B2000F0A5FCC046BD4680BD80B500AFC046BD4680BDC04680B500AF0F4B1A6880235B00134012D00D4B1A688023DB0113400CD1094B094AD8
:4013000012680A490A401A60064B064A1268802149000A431A60064B02221A60C046BD4680BDC0460000074060000740FFFEFFFF6C00074080B500AF244B00221A60244B1B
:40134000244A1A60244B244A12680C210A431A60224B234A1A60234B00221A60224B234A1A60234B1E4A1A60224B00221A600B2000F068FC03210B2000F0FAFB1E4B1900FA
:401380000B2000F0CFFB1D4B00221A601C4B00221A601C4B5222FF321A601B4B00221A601A4B00221A601A4B00221A60194B02221A70194B00221A70184B00221A80184B13
:4013C00000221A80C046BD4680BDC04600000740600007400008004070000740000307400701008004030740100307401000FE000002074004020740A5140000C80E074004
:40140000880E0740480F0740080F0740C80F0740880F07408A0200207C020020880200208C02002080B582B000AF0B2000F00AFC094B1B78DBB27B60074B1B78DBB21F22FC
:401440009343DAB2044B1A700B2000F0E5FB7B681800BD4602B080BD7C02002080B584B000AFF860B9607A607B68002B10D00B2000F0E8FB084B7A681A60FB689AB2074BAC
:401480001A80BB689AB2064B1A800B2000F0C4FBC046BD4604B080BD84020020800200207E02002080B588B000AF984B1B68002B02D0964B1B689847954B1B88FB61954BFB
:4014C0001B68FB60944B1B68BB60FA680223FF33134056D0914B914A1268520052081A608F4B1B78DBB220221340DBB2002B2BD08B4B1B78DBB220229343DAB2884B1A70CF
:40150000874B1B78DBB210221343DAB2844B1A70844B1B68102213400ED17D4B1A88824B1B889A4210D07E4B1B78DBB208221343DAB27B4B1A7007E0794B1B78DBB20222CC
:401540001343DAB2764B1A70784B784A126878490A401A60774B00221A60724B00221A60754B764A1A606B4B754A1A60754B02221A706A4B694A1268802109060A431A6053
:40158000A8E1BB681022134002D06F4B00221A60BB680A22134000D109E16C4B1B680422134000D184E06A4B1B687B60654B1B78012B04D0022B1DD0002B27D070E0654BFB
:4015C0001B88002B13D0644B01221A60634B1A68FB69D3187A68D2B21A70FB690133FB615C4B1B88013B9AB25A4B1A805CE0FFF777FE59E0584B01221A607B68DBB29AB29E
:40160000544B1A804F4B00221A704DE0514B1B881B027A6813437B60514B1B881A007B689A423AD94C4B01221A607B68FB614D4B1B881A007B689A4206D94A4B1A887B68E4
:401640009BB2D31A9AB200E00022424B1A80414B1B88072B03D83B4B01221A7018E03D4B1B88082B0AD1314B304A1268A02109020A431A602F4B00221A6009E02B4B2B4A2E
:401680001268802189010A431A602A4B08221A60FB699AB2244B1A8006E0FFF721FE03E0002000F0E5FAC046234B04221A607EE01E4B1A6880239B01134000D177E0BB68E5
:4016C000022213400DD0284B1B680F2213403B61164B164A126816490A401A6001237B6152E01C4B1B88083B9AB21A4B1A80194B1B88082B05D8174B1B883B6100237B61A1
:4017000042E008233B6101237B613DE0C001002088020020400F0740000E0740000007407C020020880F07408C02002060000740FF5FFFFFC80F0740C00F0740ED0F000089
:40174000FF0F00008A020020880E0740CC0F074040030740C40100206C00074084020020800200207E020020080307405D4B1A68FB69D2185C4B1B68DBB21370FB6901330A
:40178000FB613B69013B3B613B69002BEED17B69002B09D1554B554A1268802109020A431A60534B00221A60524B0C221A60BB680222134067D0FB681022134027D04C4BE8
:4017C00000221A604C4B00221A600223BB614B4B1B881A00FB699A4203D0BB6908221343BB61BB69FA681340BB61454B1B78DBB21A00BB691343BB61BB6920229343BB6106
:40180000BB69DAB23E4B1A703E4B02221A70FB684022134034D03A4B1B78DBB220221343DAB2374B1A70354B1B88FB61364B1B681022134018D0354B1A88FB699BB2D31A0D
:401840009AB2334B1A80334B324A1268802149020A431A602F4B2F4A12682F490A401A60254B10221A6002E0214B04221A602B4B01221A602A4B2B4A1A602B4B01221A60A0
:40188000274BFA681A60294B1B680422134021D01F4B1B88002B11D0254A124B1968FB69CB181B78DBB21360FB690133FB61184B1B88013B9AB2164B1A8002E01C4BFF2252
:4018C0001A601C4B1B680F221340082BE0D11A4B10221A60FB699AB2184B1A80C046BD4608B080BD840200204003074060000740C80F0740C00F0740880F07408C020020C9
:401900007C0200208A0200206400074080020020C401002004020740FFFFFEFF800E0740400F0740FF0F00006C000740000E07404002074008020740800F07408802002008
:4019400090B585B000AF78600C23FC1800F0BAF9030023707B68022B00D8AFE07B68302B00D9ABE05C4B1B78DBB21A007B689A420AD35A4A0F23FB1812781A70584A0E2384
:40198000FB1812781A703FE0564B1B78DBB21A007B689A420AD3544A0F23FB1812781A70524A0E23FB1812781A702DE0504B1B78DBB21A007B689A420AD34E4A0F23FB1824
:4019C00012781A704C4A0E23FB1812781A701BE04A4B1B78DBB21A007B689A420AD3484A0F23FB1812781A70464A0E23FB1812781A7009E0444A0F23FB1812781A70434A4F
:401A00000E23FB1812781A707B68DA1E0B23FB183F498A5C1A700B23FB181B782F2B0DD97B682A2B0AD93B4B19221A60052000F03FF90D23FB1819221A7007E0354B1B6891
:401A4000DAB20D23FB183F210A401A700B23FA180D23FB1812781B789A4208D22D4B7A68033A2B498A5C1A60052000F021F92A4B7A6826498C4662441278D2B21A60274B3B
:401A80000F22BA1812781A60254B0E22BA1812781A60052000F0F8F80B23FA180D23FB1812781B789A420CD91A4B7A68033A18498A5C1A60052000F0FBF802E0002000F004
:401AC000D7F80C23FB181B78180000F0FFF8C046BD4605B090BDC046C0F1FF0FC1F1FF0FC2F1FF0FC3F1FF0FC4F1FF0FC5F1FF0FC6F1FF0FC7F1FF0FC8F1FF0FC9F1FF0F8F
:401B0000CAF1FF0FCBF1FF0FCCF1FF0FCDF1FF0FB03100002CFF0B4028FF0B401CFF0B4020FF0B4080B584B000AF02003960FB1D1A7080239B05FB60FB1D1B781F2B02D91F
:401B4000002000F095F8FB1D1B7810339B00FA68D3181B68BB60FB1D1B7810339B00FA68D3183A681A60BB681800BD4604B080BD90B587B000AF0200FB1D1A70BB1D0A1C66
:401B80001A70BB1D1B78032B02D9002000F070F8FB1D1B781F2B02D9002000F069F8FB1D1B7803221340DB0006337B611323FC1800F088F803002370FB1D1B789B08DBB230
:401BC0009B00144A944663441B68FB6003227B699A401300DA43FB681340FB60BB1D1A787B699A401300FA681343FB60FB1D1B789B08DBB29B00074A94466344FA681A60F7
:401C00001323FB181B78180000F060F8C046BD4607B090BD00E400E080B582B000AF0200FB1D1A70064BFA1D12781F210A40012191400A001A60C046BD4602B080BDC046EC
:401C400000E100E080B582B000AF0200FB1D1A70064BFA1D12781F210A40012191400A001A60C046BD4602B080BDC04680E100E080B582B000AF0200FB1D1A7001BEC04638
:401C8000BD4602B080BDC04680B582B000AF0200BB1D1A80BB1D1B88044A12785343180000F006F8C046BD4602B080BDEC0000200230800804D0C0460138FDD1C046C04608
:401CC000C0467047EFF3108072B6704780F310887047C04680B582B000AF00237B6007E07B680021180000F035FC7B6801337B607B68042BF4D900F009F8002000F090FB79
:401D000000F038F9C046BD4602B080BD80B582B000AF254B1B68DAB2244B1A70234B1B787B607B680F2293437B60214B1B78DBB21A000F2313407A6813437B607B68F02228
:401D400093437B601A4B1B78DBB21A00F02313407A6813437B60144B7A681A60154B164A1A60164B164A1A60164B1B687B607B68154A13407B607B68C022D20013437B6073
:401D8000104B7A681A600F20FFF75CFF0F4B19000F20FFF7C7FE03210F20FFF7E9FEC046BD4602B080BDC04600FF08409002002062F1FF0F08000840000200010400084068
:401DC0000008A00110000140FFF0FFFF0D29000080B582B000AF00F04BFE00F011FE0021002000F01BFE0021002000F04FFE00F031FE00F0F7FD084B1B687B607B68074AC8
:401E000013437B60044B7A681A600F20FFF704FFC046BD4602B080BD040008400010088080B500AF0C4B1B78002B04D1FFF752FF094B01221A70FFF7CBFFFFF701F8074BAB
:401E400001221A70064B064A12688021C9030A431A60C046BD4680BDD6010020C80100200400084080B584B000AF0200FB1D1A70FB1D1A78FB1D01321A70FB1D1B78052BDE
:401E80000CD0FB1D1A78094B1100180000F0E2FA0300FB60FB68002BEAD000E0C046FB1D1B781800BD4604B080BDC046F800002080B582B000AF7860084B00221A707B6822
:401EC000DAB2074B1A70054B81221A707B68180000F058F9C046BD4602B080BDCA010020CB01002080B500AF124B00221A70124BFF221A70104B1B78DBB21800FFF7B2FFC3
:401F000003001A000C4B1A700B4B1B78DBB2042B0DD8084B1B78DBB201221343DAB2054B1A70054B1B78DBB2180000F02BF9C046BD4680BDCA010020CB01002080B500AF2A
:401F4000044B1B78DBB21A00012313401800BD4680BDC046CA01002080B582B000AF7860034B7A685200D35A1800BD4602B080BDCC01002080B582B000AF00237B6006E08A
:401F80007B68180000F070F87B6801337B607B68042BF5D9C046BD4602B080BD90B587B000AF78602C4A7B68D3181B787B612B4A7B68D3181B781322BA18191C0B1CDB1822
:401FC0005B181370254A7B68D3181A781223FB1892001A701123FC18FFF774FE030023701F4B7A699200D3581B68FB601223FB181B780F229A401300DA43FB681340FB6063
:402000001223FB181B7804229A401300FA681343FB60144B7A699200D358124A796989008A581268132179180978072088400100C9430A401A600A4B7A699200D358FA6820
:402040001A601123FB181B781800FFF73FFEC046BD4607B090BDC046E0310000FC3100000C3200002032000090B589B000AF78603E4A7B68D3181B787B613D4A7B68D318C1
:402080001A781323FB1892001A70394A7B68D3181B781222BA18191C0B1CDB185B1813700023FB61334A7B68D3181B78BB61324B7A699200D358304A796989008A58126823
:4020C0001321791809780F2088400100C9430A401A60BB69022B01D10023BB61BB69012B01D00623FB611123FC18FFF7EBFD03002370224B7A699200D3581B68FB601223EE
:40210000FB181B7807229A401300DA43FB681340FB601223FB181B78FA699A401300FA681343FB60154B7A699200D358FA681A601123FB181B781800FFF7C8FD104B7A69B0
:402140009200D3580E4A796989008A5812680848796841180978080001218140C9430A401A60C046BD4609B090BDC046E0310000FC310000B40200200C3200002032000004
:402180003432000090B589B000AF78601723FB1862497A688A1812781A701723FB181A785F4B9200D358BB617A685E4B1100180000F050F903003B61BB695B4A934209D8B7
:4021C000BA693B699A401300BB61BB69FF2212041343BB61554A7B68D3181B789BB2013B9BB20021180000F019FC514A7B68D3181B789BB2013B9BB20021180000F046FCF1
:402200004C4B1B78002B43D00F20FFF71BFD4A4B1B68FB61FB6940221343FB61FB6980229343FB610F23FB1841497A688A1812781A700E23FB183D497A688A1812781A700C
:402240000F23FB180F22BA180E217918127809784A431A700F23FB181A7813001B039B1A1B0418000E23FB181B781722BA1811782B4A89008A585343984203D2FB698022AA
:402280001343FB612C4BFA691A600F20FFF7C4FC0F20FFF7D7FC294B1B68FB61FB69284A1340FB61274A7B68D3181B781900264A7B68D3181B781B040B43FA691343FB6125
:4022C0001E4BFA691A601C4B1B68FB61FB691F4A1340FB61FB691E4A1343FB610F20FFF79BFC7B681800FFF759FE0D23FC18FFF7E9FC03002370104BFA691A600020FFF751
:40230000D7FC144BBA691A600D23FB181B781800FFF7DCFCC046BD4609B090BD043200001001002094020020FFFFFEFFBC0200209C020020C90100200400084008000840C9
:4023400000FF80FFA4020020AC020020FF1FDFFF200020000C00084080B586B000AF7860254B1B6899B2254B7A685200D152244A7B68D3181B787B61224B7A699200D3580C
:40238000214A934214D87A68204B1100180000F061F803003B61194B7A685200D35A1A003B691A41130099B2144B7A685200D1527B681800FFF758FE0F20FFF743FC144B97
:4023C0001B68FB60FB68134A1340FB60FB68A02212021343FB600E4BFA681A600E4B0E4A12680E490A401A600F20FFF715FCC046BD4606B080BDC0460C000840CC010020B3
:402400000432000010010020FFFFFEFF9402002004000840FF1FDFFF0800084000FF80FF80B584B000AF78607B68032213407B60074B1B68FB607B685B02FA681343FB60C5
:40244000034BFA681A60C046BD4604B080BDC0460400084080B584B000AF786039603B68DB08FB603B680722134001229A400B23FB181A707A68FB68D3181B780B22BA18D3
:4024800012781340DBB2002B01D0012300E000231800BD4604B080BD80B586B000AFF860B9607A60BB68DB087B61BB680722134001229A401323FB181A707B68002B0DD0E2
:4024C000FA687B69D318F9687A698A1811781322BA1812780A43D2B21A700EE0FA687B69D318F9687A698A181278132179180978C943C9B20A40D2B21A70C046BD4606B0DD
:4025000080BDC04680B584B000AF78600023BB600023FB6015E07B681800FFF7C9FCC046FFF70CFD0300012BFAD07B681800FFF713FD03001A00BB689B18BB60FB6801335D
:40254000FB60FB68002BE6D0BB689BB21800BD4604B080BD80B582B000AF786039603B68D9B2044A7B68D3180A1C1A70C046BD4602B080BDB402002080B588B000AF7860FD
:4025800039600023FB613AE000237B61204AFB69D3181B783B611F4AFB69D3181B78BB61BA693B69D318FB600FE03A68BB69D3181B781A007B699A4204D93A68BB69D318F3
:4025C0001B787B61BB690133BB61BA69FB689A42EBD3104AFB69D3181B78BB6108E03A68BB69D3187A69D2B21A70BB690133BB61BA69FB689A42F2D3FB690133FB61FA6904
:402600007B689A42C0D3C046BD4608B080BDC0463C3100003831000080B582B000AF78607B6804221A707B6801331A7800210A40111C39220A431A705A7800210A405A7073
:402640007B6837331A7800210A40111C24220A431A705A7800210A40111C19220A435A70C046BD4602B080BD90B585B000AF7860C0467B681B78DBB2042BFAD10F23FB18C9
:4026800000221A7022E00F23FB181B780F22BA1812789349885C7A682221D3185B18021C1A700F23FB181B780F22BA1812788D49885C7A682721D3185B18021C1A700F239B
:4026C000FB181A780F23FB1801321A700F23FB181B78042BD7D90F23FB1800221A7022E00F23FB181B780F22BA1812787E49885C7A682C21D3185B18021C1A700F23FB18FF
:402700001B780F22BA1812787849885C7A683121D3185B18021C1A700F23FB181A780F23FB1801321A700F23FB181B78042BD7D90F23FB1800221A7033E00F23FB181A782F
:402740006B4B9200D3589A0D0C23FB181A800E23FB1800221A700DE00E23FB181A780E23FB1801321A700C23FB180C22BA18128852081A800C23FB181B88002BECD10F23E0
:40278000FB181B787A683621D3185B180E22BA1812781A700F23FB181A780F23FB1801321A700F23FB181B78002BC6D00F23FB1800221A702AE00F23FB181B780F22BA187E
:4027C00012784C49895C7A68D3180A1C9A710F23FB181B780F22BA1812784749895C7A68D3180A1CDA710F23FB181B780F22BA1812784249895C7A68D3180A1C1A720F2339
:40280000FB181A780F23FB1801321A700F23FB181B78002BCFD00F23FB1800221A7052E00F23FB181B780F22BA181178344A49008A5A796804335B00CB18FF2111400C004A
:40284000997900200140081C211C01439971120A90B2DA7900210A40111C021C0A43DA710F23FB181B780F22BA181178254A49008A5A796808335B00CB18FF2111400C0060
:40288000197A00200140081C211C01431972120A90B25A7A00210A40111C021C0A435A720F23FB181B780F22BA1812781649895C7A68D3180A1C5A720F23FB181A780F2382
:4028C000FB1801321A700F23FB181B78042BA7D97B6884221A70C046BD4605B090BDC046A4020020AC0200209C020020BC02002010010020EC010020D8010020E8010020ED
:40290000CC01002094010020A801002080B500AF0F20FFF797F92D4B01221A602C4B1B78DBB21800FFF718FD2A4B1B78DBB25BB2002B08DA274B1B78DBB201229343DAB2FE
:40294000244B1A703CE0224B1B78DBB21800FFF789FA03001A001E4B1A701D4B1B78DBB2042B06D81A4B1B78DBB21800FFF70AFC26E0184B1B78DBB201229343DAB2154B78
:402980001A70144B1B78DBB21A004023134017D0114B00221A700FE00F4B1B781A000E4B1B7819000D4B595C0D4B99540A4B1B780133DAB2084B1A70074B1B78002BEBD0B2
:4029C0000F20FFF729F9C046BD4680BD14000840CB010020CA010020D701002098020020F800002080B500AF044B044A1268802109060A431A60C046BD4680BD0000024053
:402A000080B500AF044B044A1268520052081A60C046BD4680BDC0460000024080B584B000AF0200BB1D1A807B1D0A1C1A70084B1B681B0C1B04FB60BB1D1A88FB68134369
:402A4000BB60034BBA681A60C046BD4604B080BD0000024080B500AF044B044A1268802109060A431A60C046BD4680BD4000024080B500AF044B044A1268520052081A60BA
:402A8000C046BD4680BDC0464000024080B584B000AF0200BB1D1A807B1D0A1C1A70084B1B681B0C1B04FB60BB1D1A88FB681343BB60034BBA681A60C046BD4604B080BDCB
:402AC00040000240F7B59C180023071C08268025019100922370237800982B432370BB689B6C9847019B984202D22378AB432370013E6D08002EEED12378F82B01D9F8232D
:402B00002370F7BD70B5051C0E1C00242B789C4208D2AB68221C281C311C1B68FFF7D2FF0134F3E770BD38B5051C00242B789C4219D2AA6813681B5DDB080F2B00D90F232C
:402B4000D16BD268C95C1155AA68042B04D9936D906B211C012203E0936D906B211C002298470134E2E738BDF0B5041C002687B063789E4262D2A3685A6C925D0392002A3C
:402B800001D1013203921A6C925D019201992278914251D29A689B69515C0F221140B2000492002205910499019D5A50019B5B000293039B019A9B189D423DD2A768E3884F
:402BC000A0885843FB68595D00F060F93B68595D00F0D2F8059B5843194B40005A2802D95B084008FAE7BA6904991B0C1B045350A36882085B6B01215855A368C008DB69EB
:402C0000029F5A550F22A36849421B6A5855A3685B6A5A55A368986AC1530021D86AC153186B9B68C1535B19197801350A401A703B1C02330293BCE7013699E707B0F0BDAC
:402C40000000FFFFF0B585684E002B6B925B9B191C8887B0141B0094AC6A1A80A45B6B6A0294EC6A5F5CA45B2B6A03946C6B7F00645C5B180494AC680193645C1B78059496
:402C8000009CE40FA4460F24251C6744009C3D40AC46E51764196C409C4203D2012B05D0013B00E00133FF273F2B00D89F00019D2B7065460F2D29D0002D24D0BC4225D80C
:402CC000059C029F24090094974200D9171C039D954200D2151C009A092A01D8141C01343A1C0A2C14D1EA1B934206D9049A92089A42924152429B1A00E001338268D269D4
:402D000053543A1C04E0151C644601E0151C00246746836824015B6A5F5483689F6ABA53DA6A9B6895530F225B181D782A401A7083689B6859180B781C430C7007B0F0BDEE
:402D400070B58068446BC069655C405CFF213F2801D88100C9B246B2FF24002E01DB4000C4B28D4201D9291C6C08012081439954049B9C5470BD0000002243088B4274D369
:402D800003098B425FD3030A8B4244D3030B8B4228D3030C8B420DD3FF22090212BA030C8B4202D31212090265D0030B8B4219D300E0090AC30B8B4201D3CB03C01A524114
:402DC000830B8B4201D38B03C01A5241430B8B4201D34B03C01A5241030B8B4201D30B03C01A5241C30A8B4201D3CB02C01A5241830A8B4201D38B02C01A5241430A8B42EB
:402E000001D34B02C01A5241030A8B4201D30B02C01A5241CDD2C3098B4201D3CB01C01A524183098B4201D38B01C01A524143098B4201D34B01C01A524103098B4201D31E
:402E40000B01C01A5241C3088B4201D3CB00C01A524183088B4201D38B00C01A524143088B4201D34B00C01A5241411A00D20146524110467047FFE701B5002000F0F0F8C5
:402E800002BDC0460029F7D076E7704703460B437FD4002243088B4274D303098B425FD3030A8B4244D3030B8B4228D3030C8B420DD3FF22090212BA030C8B4202D3121283
:402EC000090265D0030B8B4219D300E0090AC30B8B4201D3CB03C01A5241830B8B4201D38B03C01A5241430B8B4201D34B03C01A5241030B8B4201D30B03C01A5241C30A63
:402F00008B4201D3CB02C01A5241830A8B4201D38B02C01A5241430A8B4201D34B02C01A5241030A8B4201D30B02C01A5241CDD2C3098B4201D3CB01C01A524183098B4220
:402F400001D38B01C01A524143098B4201D34B01C01A524103098B4201D30B01C01A5241C3088B4201D3CB00C01A524183088B4201D38B00C01A524143088B4201D34B00B9
:402F8000C01A5241411A00D201465241104670475DE0CA0F00D04942031000D34042534000229C4603098B422DD3030A8B4212D3FC22890112BA030A8B420CD3890192112E
:402FC0008B4208D3890192118B4204D389013AD0921100E08909C3098B4201D3CB01C01A524183098B4201D38B01C01A524143098B4201D34B01C01A524103098B4201D390
:403000000B01C01A5241C3088B4201D3CB00C01A524183088B4201D38B00C01A5241D9D243088B4201D34B00C01A5241411A00D20146634652415B10104601D34042002B0E
:4030400000D54942704763465B1000D3404201B5002000F005F802BD0029F8D016E770477047C046014B18687047C046740100200E4B70B500251E000D4CE41AA410A5421B
:4030800004D0AB00F35898470135F8E700F0DEF8084B00251E00084CE41AA410A54204D0AB00F35898470135F8E770BD583200005832000058320000603200000300821851
:4030C000934202D019700133FAE770470000000000300F40000400400F40000404300F4001310F4003330F4002400F4005410F4003420F400E430F4038803E4058045F01E9
:403100001801B401E280E6105304D42062048B048E049708D8406C407008DC0318802002610288018C40A102B448B502C608C808D802E201E608EC080000000005000000D3
:403140000019000001010102020202040404040404040404A4020020AC020020DC0000209C020020BC0200200432000010010020480200202C020020340200205C020020E8
:403180003C02002050020020740200209402002044310000383100003C3100000525000085210000591F00005524000099240000030405060708090A0B0C0E0F101112137C
:4031C0001415161718191B1C1D1E1F2021222325262728292A2B2E2F3031323334350000010101010100000002000000040000000800000010000000200000000102030440
:403200000500000000000000000000000000014004000140080001400C000140100001400800044008010440080204400803044008040440000004400001044000020440C7
:40324000000304400004044043000000F8B5C046F8BC08BC9E4670478D020000FD040000F8B5C046F8BC08BC9E4670476502000080320000C8000020B0000000500100005E
:4032800000000000FFFFFFFF1E1E1E1E1E00000001000000010101010100000000366E01C05D0000180000000000E02E010000001F00000008010440080104400801044087
:4032C00008010440080104400000FF0F00000000000000000000000000000000000000000000000000000000000000004832000000000000000000000000000000000000AC
:403300000000000000000000000000000000000000000000000000000000000000000000000000000000000000000000140100200000000000000000000000000000000058
:40334000000000000000000000000000000000000000000000000000000000000000000000000000000000000000000000000000000000000000000000000000000000004D
:40338000000000000000000000000000000000000000000000000000000000000000000000000000000000000000000000000000000000000000000000000000000000000D
:4033C00000000000000000000000000000000000000000000000000000000000000000000000000000000000000000000000000000000000000000000000000000000000CD
:40340000000000000000000000000000000000000000000000000000000000000000000000000000000000000000000000000000000000000000000000000000000000008C
:0200000490303A
:020000001BD310
:0200000490402A
:200000000000000000000000000000000000000000000000000000000000000000000000E0
:0200000490501A
:0C000000000204C81193110104D92D6600
:0200000490600A
:0100000001FE
:00000001FF